:020000040000FA
:10000000280600106D010000750100007701000056
:1000100000000000000000000000000000000000E0
:100020000000000000000000000000007901000056
:1000300000000000000000007B0100005D0A0000DD
:100040007F0100007F0100007F0100007F010000B0
:100050007F0100007F0100007F0100007F010000A0
:100060007F0100007F0100007F0100007F01000090
:100070007F0100007F0100007F0100007F01000080
:100080007F0100007F0100007F0100007F01000070
:100090007F010000390E00007F0100007F01000099
:1000A0007F0100007F0100007F0100007F01000050
:1000B0007F0100007F0100007F0100007F01000040
:1000C00000F002F800F043F80CA030C808382418FB
:1000D0002D18A246671EAB4654465D46AC4201D180
:1000E00000F035F87E460F3E0FCCB646012633426F
:1000F00000D0FB1AA246AB46334318472C10000031
:100100004C100000103A02D378C878C1FAD85207D0
:1001100001D330C830C101D504680C6070470000BD
:100120000023002400250026103A01D378C1FBD813
:10013000520700D330C100D50B60704710B50020C6
:1001400010BD1FB5C046C0461FBD10B510BD00F0A4
:10015000AEFF1146FFF7F5FF00F022F800F0C6FFF2
:1001600003B4FFF7F2FF03BC00F0CAFF0748804763
:1001700007480047FEE7FEE7FEE7FEE7FEE7FEE78B
:1001800004480549034A054B70470000710400000C
:10019000C1000000280400102806001028040010E8
:1001A00010B500F0BBFB4B20C00100F0D9FD0120D1
:1001B0001E4948601520012181401D4A116000BF81
:1001C00000F000FB1B48C06B022108431949C863BB
:1001D0000846C06B042108431649C863C821164865
:1001E00000F094FE00201449891E08704870C82150
:1001F000124800F08BFE00201049891E08704870DC
:100200000F4908700021084600F0A4F90DA112481A
:1002100000F026F811490870084601780E4800F0F1
:10022000FBFD00F033FD002010BD00000080004009
:1002300000E100E0C03F01502A0100102E00001034
:100240000600001074686973206973207468652063
:100250007374617274000000240200100500001025
:100260000FB41CB5084B06AA7B446946009005985C
:1002700000F005FF04460020694600F013FF204609
:100280001CBC08BC04B01847390E0000F8B50E4677
:100290000446002020622046E1688847002829D0D3
:1002A000252802D06268A16820E0E1682046002786
:1002B000884705001ED028464138192802D8012752
:1002C000FF0220353246204627602946FFF736FFD9
:1002D000002808D0012804D0F61DF608F6000836DC
:1002E000D9E7361DD7E762682846A1689047206A9B
:1002F000401CCFE7206AF8BD70470000FFFFFFFFFA
:1003000010B500248048406AC005000F030000F0CB
:10031000FDFE10090B0D0F11131517191B1D1F21C1
:100320002325272900241DE0784C1BE0784C19E098
:10033000784C17E0784C15E0784C13E0784C11E0DD
:10034000784C0FE0784C0DE0784C0BE0784C09E0ED
:10035000784C07E0784C05E0784C03E0784C01E0FD
:10036000784C00BF00BF6848406AC006800E811C00
:10037000204600F0CFFD044663484030006B800704
:10038000800F002806D0012808D0022823D0032897
:1003900063D123E06C486D4908605EE05A48403004
:1003A00000688007800F002806D0012808D00228A6
:1003B0000AD003280DD108E063486449086008E0CA
:1003C00061486249086004E000BF00205F4908609E
:1003D00000BF00BF41E05D4804603EE04A48403055
:1003E00000688007800F002806D0012819D0022855
:1003F0002CD003282FD12AE043488068FF21813187
:100400000840002803D050485049086008E03E48A2
:100410008068C006C00E401C4B4948434B490860E9
:1004200019E039488068FF2181310840002803D055
:1004300045484649086008E033488068C006C00E59
:10044000401C414948434149086004E000BF002086
:100450003E49086000BF00BF00BF00BF2A484030CF
:10046000816B3A48006800F055FD3849086010BDBE
:1004700008B53748806B20218843354988630020C0
:1004800021490862009003E000BF0098401C0090E2
:100490000098C828F8D301201B4940310860486003
:1004A000002048600120486000BF17484030406885
:1004B000C007C00F0028F8D02420134988602448C2
:1004C000806B802188432249886300BF0E48C06842
:1004D000C007C00F0028F9D003200B494031086342
:1004E00001204863002048630120486300BF06489C
:1004F0004030406BC007C00F0028F8D001200249EF
:100500004031886308BD00000080044020A107003E
:1005100000350C00E0C81000C05C1500006A18002F
:1005200040771B0080841E00C0912100009F2400A2
:1005300040AC2700E032290020402C00604D2F0005
:1005400000D43000C0304600001BB700000000108F
:100550000082044010B50A462D494978FF2900D190
:1005600010BD002A13D02A4B19780BE0284B9B1C96
:100570005B5C834200D1F3E74B1CDBB219461E2BB8
:1005800000D10021224B5B788B42EFD100BF204984
:100590004B784978491C1E4C6170A11CC854891EB7
:1005A00049781E2902D100212346597018494978FB
:1005B000174B1B78994205D115494978144B19708E
:1005C000FF21597000BFCBE711484078FF2805D1C3
:1005D0000F4800780E4A5070002070470C48007891
:1005E0000B4A5278904201D10020F6E70848027881
:1005F0000078401C064B1870981C815C801E0078A7
:100600001E2802D100201A4610700846E5E70000B7
:100610004202001069494A78891C895C002907D187
:1006200066494A784978491C644B5970991C88542A
:1006300062494978C72917DD60490978002908D03F
:1006400000215E4A517000225C494B78891CCA54D3
:100650001AE05A494978491E584A517000225749B0
:100660004B78891CCA540FE054494978534A127890
:10067000914209D151494978491E504A517000228E
:100680004E494B78891CCA54704710B54B490A78BB
:10069000891C885C0022891E0B780978491C474C0C
:1006A0002170A11CCA54891E0978C7290CDD214676
:1006B0004978C72903D00021224611700FE03F4935
:1006C00049783E4A11700AE03C490978491E3B4A84
:1006D0005278914203D139494978384A117010BD96
:1006E00000B500BFFFF7D1FF0028FBD100BD3449A2
:1006F0004A78891C895C002933D131494A78497884
:10070000491C2F4B5970991C8854891E4978C72958
:1007100017DD19460978002908D000211A465170C2
:10072000002219464B78891CCA541AE0244949789A
:10073000491E234A5170002221494B78891CCA5412
:100740000FE01F4949781E4A1278914209D11C498D
:100750004978491E1A4A5170002219494B78891C60
:10076000CA54704710B516490A78891C885C002263
:10077000891E0B780978491C114C2170A11CCA54A0
:10078000891E0978C7290CDD21464978C72903D07D
:100790000021224611700FE009494978084A11707A
:1007A0000AE007490978491E054A5278914203D167
:1007B00003494978024A117010BD00002C00001056
:1007C00028010010504800680121090408434E49DF
:1007D00008604E48C06BC008C0004C49C86308465A
:1007E000C06B012108434949C8634848403000684C
:1007F000C008C00045494031086008460068012132
:1008000008434249403108603F480068012109041B
:1008100088433D4908603E480068022108433C493E
:1008200008603C48C06B022108433A49C863384815
:10083000006804210843364908603648C06B04212B
:1008400008433449C86370477047002008E000211E
:1008500001E04A1C91B2304A9142FADB421C90B24C
:100860006428F4DB704703B568460079002804D09B
:10087000012809D003281BD10DE02648C06B0221B6
:1008800088432449C86314E02248C06B042188438C
:100890002049C8630DE01F48C06B022188431D49F1
:1008A000C8630846C06B042108431A49C86300E0C6
:1008B00000BF00BF0CBD03B568460079002804D016
:1008C000012809D003281BD10DE01248C06B02217A
:1008D00008431049C86314E00E48C06B0421084364
:1008E0000C49C8630DE00B48C06B0221084309495D
:1008F000C8630846C06B042188430649C86300E00A
:1009000000BF00BF0CBD0000808004404040044098
:1009100000800150C03F0150204E000010B57D21E5
:10092000C900FE48006800F0F5FA0446601EFC4964
:10093000884200D90CE0601EFA4948610321081F73
:1009400000F0BBF90020F74988610720086100BF6B
:1009500010BD00210EE00801F34A1058002807D10D
:10096000080180180079002802D10801801870471A
:10097000481CC1B20829EEDB0020F8E713B5009847
:1009800000281CD072B6FFF7E4FF0446002C14D0F8
:100990000199009861602060E4480068002804D153
:1009A000E3480460E148046007E0E0480068E06074
:1009B000DE4800688460DD48046062B600BF1CBD8C
:1009C000C169002905D18169002902D1D94A116084
:1009D0001AE0C169002907D1D64A81691160002156
:1009E0001268D16181610FE08169002903D1C26978
:1009F0009161C16108E0C269816991618269C169DF
:100A0000D1610021C1618161704710B5C94800689A
:100A1000002822D00021C74A12689160D160C548E1
:100A200004680FE02046FFF7CBFF2069002805D0BF
:100A300061692069FFF7A2FF00202061002020707B
:100A4000BC480468002C07D000210846A368594020
:100A5000E26850400143E5D000BF10BD10B5B64874
:100A60000068401CB4490860B4480368406800212D
:100A70005A1C4841B1490A604860AE4800680028E5
:100A80000BD0AC4800688268C0680B4619685B6888
:100A9000891A834101D3FFF7B8FF10BD30B5014675
:100AA000A4480068002802D1A24801602AE0A14AB7
:100AB000106823E0CD688C68C3688268A21A9D41E3
:100AC0000ED2C269002A06D08861C269CA61C269B1
:100AD0009161C16103E08861C161964A11600FE0D4
:100AE000CD688C68C3688268A21A9D4105D382696B
:100AF000002A02D18161C86102E080690028D9D151
:100B000000BF00BF30BD70B505468A4800680028A8
:100B100013D0884804680DE0A6692069A84208D16E
:100B20002046FFF74DFF002020610021A160E16019
:100B300020703446002CEFD100BF70BD37B580491E
:100B4000002318E00878002812D1012008707B48A3
:100B5000056840680024AD1860418D60C860019C44
:100B600000984C6108610020C861886108463EBD5C
:100B70002031581CC3B2072BE4DB0020F7E737B560
:100B800015462A4601990098FFF7D8FF0446002C25
:100B900000D13EBD2046FFF781FF00BFF9E713B546
:100BA000009800281CD072B6FFF7D3FE0446002C34
:100BB00014D001990098616020605D4800680028A9
:100BC00004D15B4804605948046007E05848006855
:100BD000C46057480068A0605548046062B600BF12
:100BE0001CBDC168002907D18168002904D1504A81
:100BF00011604E4A11601FE0C168002907D14C4ABC
:100C00008168116000211268D160816014E0816800
:100C1000002907D1454AC16811600021126891601E
:100C2000C16009E0C268816891600021C16082688A
:100C3000C168D16000218160704770B505463C48AD
:100C40000068002810D03A4804680AE0A6682068C6
:100C5000A84205D12046FFF7C4FF00202060207184
:100C60003446002CF2D100BF70BD10B5044672B6F8
:100C70002046FFF7E2FF2046FFF745FF62B610BDB2
:100C800030480078002800D030BF704714E0284872
:100C9000006800280ED072B6254804682046FFF789
:100CA000A0FF62B62268104661689047002020606D
:100CB000207101E0FFF7E4FFE9E710B5002819DA39
:100CC000214A03071B0F083B9B089B00D258830750
:100CD000DC0EFF23A3409A438B071B0E8407E40E10
:100CE000A3401A43184B0407240F083CA408A4008F
:100CF0001A5133E0154A03231B02D21883089B00C4
:100D0000D2588307DC0EFF23A3409A438B071B0EA8
:100D10008407E40EA3401A430C4B19E000000010B6
:100D2000FFFFFF0000E000E0480300101800001083
:100D30001C0000101400001020000010080000101B
:100D400068020010100000101CED00E000E100E05F
:100D5000032424021B198408A4001A5110BD0000AA
:100D600070B5044600BF53480068012109040843D8
:100D7000504908605048406AC008C0004E49486267
:100D80000846406A012108434B4948620846806A88
:100D9000C008C00088620846806A012108434649AD
:100DA0008862444800680121090488434149086079
:100DB00001208861084600680121090308433D4974
:100DC000086083203D49C8603D49096808092146FB
:100DD00000F0A0F80546280A38494860E8B20860E3
:100DE0000320C860072088600846466970BD00BFC0
:100DF00032484069C007C00F0028F9D02F4800686A
:100E0000C0B270472D49086000BF2C4949692022B3
:100E100011402029F9D170470BE000BF274A5269E1
:100E200020231A40002AF9D00278244B1A60401C73
:100E3000491E0029F1D170477CB5204885682807F4
:100E4000450F022D29D11D480068C4B2552C0AD186
:100E50001C480078694608711B4800900199009869
:100E6000FFF79DFE19E0662C0AD116480078694606
:100E700008711648009001990098FFF790FE0CE069
:100E8000772C0AD10F480068401C0E4908600846BC
:100E90000068032801DD002008607CBD10B5FFF765
:100EA00061FC0B490870002109480078FFF752FBEC
:100EB00010BD00008080044080400440008000405D
:100EC000000000102800001067080000B7080000AC
:100ED0002400001001E004C0091F0429FBD28B0785
:100EE00001D50280801CC90700D00270704700291C
:100EF0000BD0C30702D00270401C491E022904D344
:100F0000830702D50280801C891EE3E70022EEE7FA
:100F10000022DFE7002203098B422CD3030A8B4215
:100F200011D300239C464EE003460B433CD40022E1
:100F300043088B4231D303098B421CD3030A8B42F3
:100F400001D394463FE0C3098B4201D3CB01C01AC1
:100F5000524183098B4201D38B01C01A524143098C
:100F60008B4201D34B01C01A524103098B4201D37A
:100F70000B01C01A5241C3088B4201D3CB00C01AE7
:100F8000524183088B4201D38B00C01A524143085F
:100F90008B4201D34B00C01A5241411A00D2014684
:100FA0005241104670475DE0CA0F00D0494203101D
:100FB00000D34042534000229C4603098B422DD36C
:100FC000030A8B4212D3FC22890112BA030A8B4214
:100FD0000CD3890192118B4208D3890192118B4263
:100FE00004D389013AD0921100E08909C3098B42E8
:100FF00001D3CB01C01A524183098B4201D38B012B
:10100000C01A524143098B4201D34B01C01A5241CD
:1010100003098B4201D30B01C01A5241C3088B4212
:1010200001D3CB00C01A524183088B4201D38B00FD
:10103000C01A5241D9D243088B4201D34B00C01A87
:101040005241411A00D20146634652415B1010469C
:1010500001D34042002B00D54942704763465B10E4
:1010600000D3404201B50020C046C04602BD7047D3
:101070007047704701694A1C02610878704700B5E3
:101080008FB00291002105910549019379440391A4
:10109000114604906846FFF7F9F80FB000BD000054
:1010A000E5FFFFFF0A681070521C0A607047754622
:1010B00000F022F8AE46050069465346C008C0005D
:1010C000854618B020B5FFF75BF860BC00274908DB
:1010D000B6460026C0C5C0C5C0C5C0C5C0C5C0C5D0
:1010E000C0C5C0C5403D49008D4670470446C04656
:1010F000C0462046FFF734F800487047C803001088
:1011000001491820ABBEFEE72600020030B4744649
:10111000641E2578641CAB4204D3635D5B00E31856
:1011200030BC18471D46F8E74811000000000010C9
:101130002C00000004010000741100002C000010BD
:10114000FC05000020010000008793030000000060
:10115000000000000000000000000000000000008F
:10116000000000000000000000000000000000007F
:04117000000000007B
:04000005000000C136
:00000001FF
