:020000040000FA
:100000006802001069010000710100007301000026
:1000100000000000000000000000000000000000E0
:10002000000000000000000000000000750100005A
:1000300000000000000000007701000079010000CE
:100040007B0100007B0100007B0100007B010000C0
:100050007B0100007B0100007B0100007B010000B0
:100060007B0100007B0100007B0100007B010000A0
:100070007B0100007B0100007B0100007B01000090
:100080007B0100007B0100007B0100007B01000080
:100090007B0100009D0200007B0100007B0100004D
:1000A0007B0100007B0100007B0100007B01000060
:1000B0007B0100007B0100007B0100007B01000050
:1000C00000F002F800F040F80CA030C808382418FE
:1000D0002D18A246671EAB4654465D46AC4201D180
:1000E00000F032F87E460F3E0FCCB6460126334272
:1000F00000D0FB1AA246AB46334318471006000057
:1001000030060000103A02D378C878C1FAD85207F6
:1001100001D330C830C101D504680C6070470000BD
:100120000023002400250026103A01D378C1FBD813
:10013000520700D330C100D50B6070471FB5C046D1
:10014000C0461FBD10B510BD00F0B3FA1146FFF751
:10015000F5FF00F023F800F0BAF803B4FFF7F2FF60
:1001600003BC00F0BFF8000007488047074800477D
:10017000FEE7FEE7FEE7FEE7FEE7FEE70448054987
:10018000034A054B7047000071040000C1000000E5
:10019000680000106802001068000010E1204002B2
:1001A00000F010F801200549486015200121814028
:1001B000034A116000BF00BFFEE70000008000405E
:1001C00000E100E070B5044600BF3B480068012133
:1001D00009040843384908603848406AC008C0002C
:1001E000364948620846406A01210843334948625B
:1001F0000846806AC008C00088620846806A0121FB
:1002000008432E4988622C4800680121090488436C
:100210002949086001208861084600680121090316
:1002200008432549086083202549C8602549096895
:100230000809214600F090F90546280A204948603F
:10024000E8B208600320C860072088600846466955
:1002500070BD00BF1A484069C007C00F0028F9D020
:1002600017480068C0B270471549086000BF1449BC
:100270004969202211402029F9D170470BE000BFC5
:100280000F4A526920231A40002AF9D002780C4BF9
:100290001A60401C491E0029F1D1704710B508486A
:1002A00084682007440F022C05D105480068C3B2BA
:1002B0001846FFF7D9FF10BD8080044080400440FD
:1002C00000800040000000107047704770470446EF
:1002D000C046C0462046FFF740FF00000048704778
:1002E0000400001001491820ABBEFEE72600020002
:1002F000704700000000000000000000FFFFFFFF4B
:1003000010B500248048406AC005000F030000F0CB
:10031000EFF910090B0D0F11131517191B1D1F21D4
:100320002325272900241DE0784C1BE0784C19E098
:10033000784C17E0784C15E0784C13E0784C11E0DD
:10034000784C0FE0784C0DE0784C0BE0784C09E0ED
:10035000784C07E0784C05E0784C03E0784C01E0FD
:10036000784C00BF00BF6848406AC006800E811C00
:10037000204600F0F1F8044663484030006B8007E7
:10038000800F002806D0012808D0022823D0032897
:1003900063D123E06C486D4908605EE05A48403004
:1003A00000688007800F002806D0012808D00228A6
:1003B0000AD003280DD108E063486449086008E0CA
:1003C00063486249086004E000BF00205F4908609C
:1003D00000BF00BF41E05D4804603EE04A48403055
:1003E00000688007800F002806D0012819D0022855
:1003F0002CD003282FD12AE043488068FF21813187
:100400000840002803D050485049086008E03E48A2
:100410008068C006C00E401C4B4948434B490860E9
:1004200019E039488068FF2181310840002803D055
:1004300047484649086008E033488068C006C00E57
:10044000401C434948434149086004E000BF002084
:100450003E49086000BF00BF00BF00BF2A484030CF
:10046000816B3A48006800F077F83849086010BDA1
:1004700008B53848806B20218843364988630020BE
:1004800021490862009003E000BF0098401C0090E2
:100490000098C828F8D301201B4940310860486003
:1004A000002048600120486000BF17484030406885
:1004B000C007C00F0028F8D02420134988602548C1
:1004C000806B802188432349886300BF0E48C06841
:1004D000C007C00F0028F9D003200B494031086342
:1004E00001204863002048630120486300BF06489C
:1004F0004030406BC007C00F0028F8D001200249EF
:100500004031886308BD00000080044020A107003E
:1005100000350C00E0C81000C05C1500006A18002F
:1005200040771B0080841E00C0912100009F2400A2
:1005300040AC2700E032290020402C00604D2F0005
:1005400000D43000C0304600001BB700000000108F
:100550008096980000820440002203098B422CD32D
:10056000030A8B4211D300239C464EE003460B4303
:100570003CD4002243088B4231D303098B421CD365
:10058000030A8B4201D394463FE0C3098B4201D357
:10059000CB01C01A524183098B4201D38B01C01A8F
:1005A000524143098B4201D34B01C01A5241030906
:1005B0008B4201D30B01C01A5241C3088B4201D3B5
:1005C000CB00C01A524183088B4201D38B00C01A62
:1005D000524143088B4201D34B00C01A5241411A89
:1005E00000D201465241104670475DE0CA0F00D06C
:1005F0004942031000D34042534000229C46030965
:100600008B422DD3030A8B4212D3FC22890112BAEA
:10061000030A8B420CD3890192118B4208D38901C2
:1006200092118B4204D389013AD0921100E08909DA
:10063000C3098B4201D3CB01C01A524183098B42BB
:1006400001D38B01C01A524143098B4201D34B01A4
:10065000C01A524103098B4201D30B01C01A524107
:10066000C3088B4201D3CB00C01A524183088B428E
:1006700001D38B00C01A5241D9D243088B4201D317
:100680004B00C01A5241411A00D201466346524102
:100690005B10104601D34042002B00D54942704701
:1006A00063465B1000D3404201B50020C046C046FF
:1006B00002BD7546FFF712FEAE4605006946534679
:1006C000C008C000854618B020B5FFF757FD60BCD4
:1006D00000274908B6460026C0C5C0C5C0C5C0C56C
:1006E000C0C5C0C5C0C5C0C5403D49008D467047A6
:1006F00030B47446641E2578641CAB4204D3635D39
:100700005B00E31830BC18471D46F8E72C070000D3
:100710000000001004000000040100003007000089
:1007200004000010640200002001000080F0FA02C2
:04000005000000C136
:00000001FF
