:020000040000FA
:10000000A0040010690100007101000073010000EC
:1000100000000000000000000000000000000000E0
:10002000000000000000000000000000750100005A
:1000300000000000000000007701000079010000CE
:100040007B0100007B0100007B0100007B010000C0
:100050007B0100007B0100007B0100007B010000B0
:100060007B0100007B0100007B0100007B010000A0
:100070007B0100007B0100007B0100007B01000090
:100080007B0100007B010000FB0100007B01000000
:100090007B0100004D0800007B0100007B01000097
:1000A0007B0100007B0100007B0100007B01000060
:1000B0007B0100007B0100007B0100007B01000050
:1000C00000F002F800F040F80CA030C808382418FE
:1000D0002D18A246671EAB4654465D46AC4201D180
:1000E00000F032F87E460F3E0FCCB6460126334272
:1000F00000D0FB1AA246AB463343184774090000F0
:1001000094090000103A02D378C878C1FAD852078F
:1001100001D330C830C101D504680C6070470000BD
:100120000023002400250026103A01D378C1FBD813
:10013000520700D330C100D50B6070471FB5C046D1
:10014000C0461FBD10B510BD00F054FC1146FFF7AE
:10015000F5FF00F03BF800F06CFC03B4FFF7F2FF92
:1001600003BC00F071FC00000748804707480047C7
:10017000FEE7FEE7FEE7FEE7FEE7FEE70448054987
:10018000034A054B7047000071040000C1000000E5
:10019000A0020010A0040010A002001010B51F481B
:1001A00000680121490208431C49086000201C49DD
:1001B0004860C860086188601A4888610320486107
:1001C00001204860122000F022F810BD4B20C00131
:1001D00000F0D0FA012014494860152000F017F80B
:1001E00000F06CFAFFF7DAFF1048006902210843BB
:1001F0000E49086100E030BFFDE709480068084982
:1002000008600B488068C043094988607047C2068F
:10021000D20E01219140074A11607047808004404E
:10022000004001407F8D5B000080004000ED00E059
:100230000000015000E100E010B50A462D49497860
:10024000FF2900D110BD002A13D02A4B19780BE0EA
:10025000284B9B1C5B5C834200D1F3E74B1CDBB259
:1002600019461E2B00D10021224B5B788B42EFD127
:1002700000BF20494B784978491C1E4C6170A11C75
:10028000C854891E49781E2902D10021234659707D
:1002900018494978174B1B78994205D11549497877
:1002A000144B1970FF21597000BFCBE711484078FB
:1002B000FF2805D10F4800780E4A50700020704783
:1002C0000C4800780B4A5278904201D10020F6E7A2
:1002D000084802780078401C064B1870981C815C16
:1002E000801E00781E2802D100201A461070084691
:1002F000E5E700001E02001070470000FFFFFFFF4F
:1003000010B500246F48406AC005000F030000F0DC
:10031000A1FB10090B0D0F11131517191B1D1F2120
:100320002325272900241DE0674C1BE0674C19E0BA
:10033000674C17E0674C15E0674C13E0674C11E021
:10034000674C0FE0674C0DE0674C0BE0674C09E031
:10035000674C07E0674C05E0674C03E0674C01E041
:10036000674C00BF00BF5748406AC006800E811C22
:10037000204600F08FFA044652484030006B800758
:10038000800F002806D0012808D0022823D0032897
:1003900063D123E05B485C4908605EE04948403037
:1003A00000688007800F002806D0012808D00228A6
:1003B0000AD003280DD108E052485349086008E0EC
:1003C00050485149086004E000BF00204E490860D1
:1003D00000BF00BF41E04C4804603EE03948403077
:1003E00000688007800F002806D0012819D0022855
:1003F0002CD003282FD12AE032488068FF21813198
:100400000840002803D03F483F49086008E02D48D5
:100410008068C006C00E401C3A4948433A4908600B
:1004200019E028488068FF2181310840002803D066
:1004300034483549086008E022488068C006C00E8C
:10044000401C304948433049086004E000BF0020A8
:100450002D49086000BF00BF00BF00BF19484030F1
:10046000816B2948006800F015FA2749086010BD23
:100470000020144940310860012048600020486095
:100480000120486000BF0F4840304068C007C00FDF
:100490000028F8D000200B49403108630120486350
:1004A000002048630120486300BF06484030406B8D
:1004B000C007C00F0028F8D00120024940318863EE
:1004C000704700000080044020A1070000350C00A8
:1004D000E0C81000C05C1500006A180040771B00DF
:1004E00080841E00C0912100009F240040AC2700A2
:1004F000E032290020402C00604D2F0000D4300055
:10050000C0304600001BB7000000001069494A785F
:10051000891C895C002907D166494A784978491CB9
:10052000644B5970991C885462494978C72917DD72
:1005300060490978002908D000215E4A51700022E4
:100540005C494B78891CCA541AE05A494978491EBB
:10055000584A5170002257494B78891CCA540FE001
:1005600054494978534A1278914209D151494978FE
:10057000491E504A517000224E494B78891CCA547A
:10058000704710B54B490A78891C885C0022891E87
:100590000B780978491C474C2170A11CCA54891E4C
:1005A0000978C7290CDD21464978C72903D00021E5
:1005B000224611700FE03F4949783E4A11700AE027
:1005C0003C490978491E3B4A5278914203D1394946
:1005D0004978384A117010BD00B500BFFFF7D1FF50
:1005E0000028FBD100BD34494A78891C895C002968
:1005F00033D131494A784978491C2F4B5970991C9D
:100600008854891E4978C72917DD194609780029B9
:1006100008D000211A465170002219464B78891CD7
:10062000CA541AE024494978491E234A51700022CD
:1006300021494B78891CCA540FE01F4949781E4A4A
:100640001278914209D11C494978491E1A4A5170C1
:10065000002219494B78891CCA54704710B51649B5
:100660000A78891C885C0022891E0B780978491C4D
:10067000114C2170A11CCA54891E0978C7290CDDB0
:1006800021464978C72903D00021224611700FE086
:1006900009494978084A11700AE007490978491E52
:1006A000054A5278914203D103494978024A1170B0
:1006B00010BD000008000010040100102848006868
:1006C000012109040843264908602648C06BC00878
:1006D000C0002449C8630846C06B01210843214972
:1006E000C863204840300068C008C0001D49403140
:1006F000086008460068012108431A494031086033
:100700001748006801210904884315490860164804
:10071000006802210843144908601448C06B022194
:1007200008431249C86310480068042108430E4971
:1007300008600E48C06B042108430C49C863704729
:100740007047002008E0002101E04A1C91B2084AED
:100750009142FADB421C90B26428F4DB704700003F
:10076000808004404040044000800150C03F015060
:10077000204E000070B5044600BF414800680121CA
:10078000090408433E4908603E48406AC008C0006A
:100790003C4948620846406A012108433949486299
:1007A0000846806AC008C00088620846806A012145
:1007B00008433449886232480068012109048843AB
:1007C0002F4908600120886108460068012109035B
:1007D00008432B49086083202B49C8602B490968CE
:1007E0000809214600F056F80546280A26494860BF
:1007F000E8B208600320C8600720886008464669A0
:1008000070BD00BF20484069C007C00F0028F9D064
:100810001D480068C0B270471B49086000BF1A49F4
:100820004969202211402029F9D170470BE000BF0F
:10083000154A526920231A40002AF9D00278124B37
:100840001A60401C491E0029F1D1704770B50E484E
:1008500085682807450F022D05D10B480068C4B2F2
:100860002046FFF7C0FE70BD10B5FFF7F7FE084940
:100870000870002106480078FFF7DEFC10BD00007C
:100880008080044080400440008000400000001050
:1008900004000010002203098B422CD3030A8B4270
:1008A00011D300239C464EE003460B433CD4002268
:1008B00043088B4231D303098B421CD3030A8B427A
:1008C00001D394463FE0C3098B4201D3CB01C01A48
:1008D000524183098B4201D38B01C01A5241430913
:1008E0008B4201D34B01C01A524103098B4201D301
:1008F0000B01C01A5241C3088B4201D3CB00C01A6E
:10090000524183088B4201D38B00C01A52414308E5
:100910008B4201D34B00C01A5241411A00D201460A
:100920005241104670475DE0CA0F00D049420310A3
:1009300000D34042534000229C4603098B422DD3F2
:10094000030A8B4212D3FC22890112BA030A8B429A
:100950000CD3890192118B4208D3890192118B42E9
:1009600004D389013AD0921100E08909C3098B426E
:1009700001D3CB01C01A524183098B4201D38B01B1
:10098000C01A524143098B4201D34B01C01A524154
:1009900003098B4201D30B01C01A5241C3088B4299
:1009A00001D3CB00C01A524183088B4201D38B0084
:1009B000C01A5241D9D243088B4201D34B00C01A0E
:1009C0005241411A00D20146634652415B10104623
:1009D00001D34042002B00D54942704763465B106B
:1009E00000D3404201B50020C046C04602BD70475A
:1009F00070477047754600F023F8AE46050069461B
:100A00005346C008C000854618B020B5FFF7B6FBB6
:100A100060BC00274908B6460026C0C5C0C5C0C591
:100A2000C0C5C0C5C0C5C0C5C0C5403D49008D4694
:100A300070470446C046C0462046FFF78EFB0000C4
:100A4000004870474002001001491820ABBEFEE785
:100A50002600020030B47446641E2578641CAB4244
:100A600004D3635D5B00E31830BC18471D46F8E70C
:100A7000900A0000000000100800000004010000BF
:100A8000980A0000080000109804000020010000EF
:080A9000001BB700000000008C
:04000005000000C136
:00000001FF
