:020000040000FA
:10000000E0030010690100007101000073010000AD
:1000100000000000000000000000000000000000E0
:10002000000000000000000000000000750100005A
:1000300000000000000000007701000095060000AD
:100040007B0100007B0100007B0100007B010000C0
:100050007B0100007B0100007B0100007B010000B0
:100060007B0100007B0100007B0100007B010000A0
:100070007B0100007B0100007B0100007B01000090
:100080007B0100007B0100007B0100007B01000080
:100090007B0100007D0200007B0100007B0100006D
:1000A0007B0100007B0100007B0100007B01000060
:1000B0007B0100007B0100007B0100007B01000050
:1000C00000F002F800F040F80CA030C808382418FE
:1000D0002D18A246671EAB4654465D46AC4201D180
:1000E00000F032F87E460F3E0FCCB6460126334272
:1000F00000D0FB1AA246AB4633431847100A000053
:10010000300A0000103A02D378C878C1FAD85207F2
:1001100001D330C830C101D504680C6070470000BD
:100120000023002400250026103A01D378C1FBD813
:10013000520700D330C100D50B6070471FB5C046D1
:10014000C0461FBD10B510BD00F0ADF81146FFF759
:10015000F5FF00F023F800F0C5F803B4FFF7F2FF55
:1001600003BC00F0BFFC0000074880470748004779
:10017000FEE7FEE7FEE7FEE7FEE7FEE70448054987
:10018000034A054B7047000071040000C1000000E5
:10019000E0010010E0030010E001001001E000F0B9
:1001A0008CFBFCE770B5044600BF394800680121AC
:1001B00009040843364908603648406AC008C00050
:1001C000344948620846406A01210843314948627F
:1001D0000846806AC008C00088620846806A01211B
:1001E00008432C4988622A48006801210904884391
:1001F0002749086001208861084600680121090339
:1002000008432349086083202349C86023490968BB
:100210000809214600F0B8FB0546280A1E49486037
:10022000E8B208600320C860072088600846466975
:1002300070BD00BF18484069C007C00F0028F9D042
:1002400015480068C0B270471349086000BF1249E2
:100250004969202211402029F9D170470BE000BFE5
:100260000D4A526920231A40002AF9D002780A4B1D
:100270001A60401C491E0029F1D17047064A906857
:100280000207500F022802D1034A1268D1B2704708
:100290008080044080400440008000400000001046
:1002A000704770477047754600F022F8AE4605006B
:1002B00069465346C008C000854618B020B5FFF710
:1002C0005DFF60BC00274908B6460026C0C5C0C512
:1002D000C0C5C0C5C0C5C0C5C0C5C0C5403D49003A
:1002E0008D4670470446C046C0462046FFF735FF9E
:1002F000004870478001001070470000FFFFFFFFBB
:1003000010B500248048406AC005000F030000F0CB
:10031000EFFB10090B0D0F11131517191B1D1F21D2
:100320002325272900241DE0784C1BE0784C19E098
:10033000784C17E0784C15E0784C13E0784C11E0DD
:10034000784C0FE0784C0DE0784C0BE0784C09E0ED
:10035000784C07E0784C05E0784C03E0784C01E0FD
:10036000784C00BF00BF6848406AC006800E811C00
:10037000204600F009FB044663484030006B8007CC
:10038000800F002806D0012808D0022823D0032897
:1003900063D123E06C486D4908605EE05A48403004
:1003A00000688007800F002806D0012808D00228A6
:1003B0000AD003280DD108E063486449086008E0CA
:1003C00061486249086004E000BF00205F4908609E
:1003D00000BF00BF41E05D4804603EE04A48403055
:1003E00000688007800F002806D0012819D0022855
:1003F0002CD003282FD12AE043488068FF21813187
:100400000840002803D050485049086008E03E48A2
:100410008068C006C00E401C4B4948434B490860E9
:1004200019E039488068FF2181310840002803D055
:1004300045484649086008E033488068C006C00E59
:10044000401C414948434149086004E000BF002086
:100450003E49086000BF00BF00BF00BF2A484030CF
:10046000816B3A48006800F08FFA3849086010BD87
:1004700008B53748806B20218843354988630020C0
:1004800021490862009003E000BF0098401C0090E2
:100490000098C828F8D301201B4940310860486003
:1004A000002048600120486000BF17484030406885
:1004B000C007C00F0028F8D02420134988602448C2
:1004C000806B802188432249886300BF0E48C06842
:1004D000C007C00F0028F9D003200B494031086342
:1004E00001204863002048630120486300BF06489C
:1004F0004030406BC007C00F0028F8D001200249EF
:100500004031886308BD00000080044020A107003E
:1005100000350C00E0C81000C05C1500006A18002F
:1005200040771B0080841E00C0912100009F2400A2
:1005300040AC2700E032290020402C00604D2F0005
:1005400000D43000C0304600001BB700000000108F
:100550000082044010B57D21C900FE48006800F00B
:1005600013FA0446601EFC49884200D90CE0601E64
:10057000FA4948610321081F00F0B6F90020F74945
:1005800088610720086100BF10BD00210EE008014E
:10059000F34A1058002807D1080180180079002874
:1005A00002D1080180187047481CC1B20829EEDB4F
:1005B0000020F8E713B5009800281CD072B6FFF7AA
:1005C000E4FF0446002C14D001990098616020607B
:1005D000E4480068002804D1E3480460E14804606E
:1005E00007E0E0480068E060DE4800688460DD48BD
:1005F000046062B600BF1CBDC169002905D18169D4
:10060000002902D1D94A11601AE0C169002907D135
:10061000D64A8169116000211268D16181610FE0C1
:100620008169002903D1C2699161C16108E0C26991
:10063000816991618269C169D1610021C161816172
:10064000704710B5C9480068002822D00021C74A69
:1006500012689160D160C54804680FE02046FFF73A
:10066000CBFF2069002805D061692069FFF7A2FF50
:100670000020206100202070BC480468002C07D0B6
:1006800000210846A3685940E26850400143E5D084
:1006900000BF10BD10B5B6480368406800215A1C61
:1006A0004841B3490A604860B048006800280BD050
:1006B000AE4801688868C968AD4B1A685B68101A53
:1006C0008B4101D3FFF7BDFF10BD30B50146A748F0
:1006D0000068002802D1A54801602AE0A34A1068FA
:1006E00023E0CD688C68C3688268A21A9D410ED24F
:1006F000C269002A06D08861C269CA61C269916173
:10070000C16103E08861C161984A11600FE0CD6862
:100710008C68C3688268A21A9D4105D38269002A49
:1007200002D18161C86102E080690028D9D100BF8F
:1007300000BF30BD70B505468C480068002813D056
:100740008A4804680DE0A6692069A84208D12046BD
:10075000FFF752FF002020610021A160E1602070BE
:100760003446002CEFD100BF70BD37B5814900235E
:1007700018E00878002812D1012008707C4805682C
:1007800040680024AD1860418D60C860019C0098ED
:100790004C6108610020C861886108463EBD203177
:1007A000581CC3B2072BE4DB0020F7E737B515462A
:1007B0002A4601990098FFF7D8FF0446002C00D183
:1007C0003EBD2046FFF781FF00BFF9E713B5009853
:1007D00000281CD072B6FFF7D8FE0446002C14D0B7
:1007E00001990098616020605F480068002804D18A
:1007F0005D4804605B48046007E05B480068C460D3
:1008000059480068A0605848046062B600BF1CBD2B
:10081000C168002907D18168002904D1524A1160BA
:10082000504A11601FE0C168002907D14E4A816813
:10083000116000211268D160816014E08168002994
:1008400007D1484AC1681160002112689160C160F7
:1008500009E0C268816891600021C1608268C16856
:10086000D16000218160704770B505463E48006840
:10087000002810D03C4804680AE0A6682068A84216
:1008800005D12046FFF7C4FF0020206020713446C8
:10089000002CF2D100BF70BD10B5044672B62046E0
:1008A000FFF7E2FF2046FFF745FF62B610BD324872
:1008B0000078002800D030BF704714E02A48006854
:1008C00000280ED072B6284804682046FFF7A0FF23
:1008D00062B622681046616890470020206020714F
:1008E00001E0FFF7E4FFE9E710B5002819DA234A31
:1008F00003071B0F083B9B089B00D2588307DC0EA5
:10090000FF23A3409A438B071B0E8407E40EA340EA
:100910001A431A4B0407240F083CA408A4001A51D8
:1009200031E0174A03231B02D21883089B00D258D8
:100930008307DC0EFF23A3409A438B071B0E84071B
:10094000E40EA3401A430E4B032424021B1984080F
:10095000A40017E000000010FFFFFF0000E000E02F
:1009600000010010180000101C00001014000010FE
:100970000800001020000010100000101CED00E026
:1009800000E100E01A5110BD002203098B422CD374
:10099000030A8B4211D300239C464EE003460B43CF
:1009A0003CD4002243088B4231D303098B421CD331
:1009B000030A8B4201D394463FE0C3098B4201D323
:1009C000CB01C01A524183098B4201D38B01C01A5B
:1009D000524143098B4201D34B01C01A52410309D2
:1009E0008B4201D30B01C01A5241C3088B4201D381
:1009F000CB00C01A524183088B4201D38B00C01A2E
:100A0000524143088B4201D34B00C01A5241411A54
:100A100000D201465241104670475DE0CA0F00D037
:100A20004942031000D34042534000229C46030930
:100A30008B422DD3030A8B4212D3FC22890112BAB6
:100A4000030A8B420CD3890192118B4208D389018E
:100A500092118B4204D389013AD0921100E08909A6
:100A6000C3098B4201D3CB01C01A524183098B4287
:100A700001D38B01C01A524143098B4201D34B0170
:100A8000C01A524103098B4201D30B01C01A5241D3
:100A9000C3088B4201D3CB00C01A524183088B425A
:100AA00001D38B00C01A5241D9D243088B4201D3E3
:100AB0004B00C01A5241411A00D2014663465241CE
:100AC0005B10104601D34042002B00D549427047CD
:100AD00063465B1000D3404201B50020C046C046CB
:100AE00002BD000001491820ABBEFEE7260002004F
:100AF00030B47446641E2578641CAB4204D3635D35
:100B00005B00E31830BC18471D46F8E72C0B0000CB
:100B10000000001020000000040100004C0B000049
:100B200020000010C0030000200100000087930394
:100B300000000000000000000000000000000000B5
:0C0B4000000000000000000000000000A9
:04000005000000C136
:00000001FF
