:020000040000FA
:10000000D00400107901000081010000830100008C
:1000100000000000000000000000000000000000E0
:10002000000000000000000000000000850100004A
:1000300000000000000000008701000089010000AE
:100040008B0100008B0100008B0100008B01000080
:100050008B0100008B0100008B0100008B01000070
:100060008B0100008B0100008B0100008B01000060
:100070008B0100008B0100008B0100008B01000050
:100080008B0100008B0100008B0100008B01000040
:100090008B010000450A00008B0100008B0100006D
:1000A0008B0100008B0100008B0100008B01000020
:1000B0008B0100008B0100008B0100008B01000010
:1000C00000F002F800F048F80CA030C808382418F6
:1000D0002D18A246671EAB4654465D46AC4201D180
:1000E00000F03AF87E460F3E0FCCB646012633426A
:1000F00000D0FB1AA246AB46334318478C0D0000D4
:10010000AC0D0000103A02D378C878C1FAD8520773
:1001100001D330C830C101D504680C6070470000BD
:100120000023002400250026103A01D378C1FBD813
:10013000520700D330C100D50B60704710B5642959
:1001400002D100F0D9FC10BD002010BD1FB5C04683
:10015000C0461FBD10B510BD00F056FE1146FFF79A
:10016000F5FF00F023F800F06EFE03B4FFF7F2FF96
:1001700003BC00F073FE00000748804707480047B3
:10018000FEE7FEE7FEE7FEE7FEE7FEE70448054977
:10019000034A054B7047000071040000C1000000D5
:1001A000D0020010D0040010D00200104B20C0017B
:1001B00000F0DCFB01203549486015200121814019
:1001C000334A116000BF00F075FBC821314800F0D0
:1001D000E5FC00202F49891E08704870C8212E4870
:1001E00000F0DCFC00202C49891E087048702B4967
:1001F00008700021084600F0ADF929A12D4800F053
:100200005FF82D490870084601782A4800F00AFC7A
:100210003BE000F0D9F90446204600F0D3FA1D482F
:10022000801E00781B49891E497888420ED11948E2
:10023000801E00781749891E4978884208D11548E0
:10024000801E0178801C405C002801D000F008FC72
:100250001A48C06B022188431849C8630846C06B1E
:10026000042108431549C86300F067FB1348C06BBD
:10027000022108431149C8630846C06B0421884322
:100280000E49C86300F059FB00BFC2E70080004080
:1002900000E100E00A0100100E000010060000104E
:1002A000746869732069732074686520737461725F
:1002B000740000000402001005000010C03F01504F
:1002C0000FB41CB5084B06AA7B44694600900598FC
:1002D00000F073FD04460020694600F00AF820464D
:1002E0001CBC08BC04B018472700000070477047CA
:1002F00070470A681070521C0A607047FFFFFFFFCA
:1003000010B500248048406AC005000F030000F0CB
:10031000ACFD10090B0D0F11131517191B1D1F2113
:100320002325272900241DE0784C1BE0784C19E098
:10033000784C17E0784C15E0784C13E0784C11E0DD
:10034000784C0FE0784C0DE0784C0BE0784C09E0ED
:10035000784C07E0784C05E0784C03E0784C01E0FD
:10036000784C00BF00BF6848406AC006800E811C00
:10037000204600F017FC044663484030006B8007BD
:10038000800F002806D0012808D0022823D0032897
:1003900063D123E06C486D4908605EE05A48403004
:1003A00000688007800F002806D0012808D00228A6
:1003B0000AD003280DD108E063486449086008E0CA
:1003C00061486249086004E000BF00205F4908609E
:1003D00000BF00BF41E05D4804603EE04A48403055
:1003E00000688007800F002806D0012819D0022855
:1003F0002CD003282FD12AE043488068FF21813187
:100400000840002803D050485049086008E03E48A2
:100410008068C006C00E401C4B4948434B490860E9
:1004200019E039488068FF2181310840002803D055
:1004300045484649086008E033488068C006C00E59
:10044000401C414948434149086004E000BF002086
:100450003E49086000BF00BF00BF00BF2A484030CF
:10046000816B3A48006800F09DFB3849086010BD78
:1004700008B53748806B20218843354988630020C0
:1004800021490862009003E000BF0098401C0090E2
:100490000098C828F8D301201B4940310860486003
:1004A000002048600120486000BF17484030406885
:1004B000C007C00F0028F8D02420134988602448C2
:1004C000806B802188432249886300BF0E48C06842
:1004D000C007C00F0028F9D003200B494031086342
:1004E00001204863002048630120486300BF06489C
:1004F0004030406BC007C00F0028F8D001200249EF
:100500004031886308BD00000080044020A107003E
:1005100000350C00E0C81000C05C1500006A18002F
:1005200040771B0080841E00C0912100009F2400A2
:1005300040AC2700E032290020402C00604D2F0005
:1005400000D43000C0304600001BB700000000108F
:100550000082044010B50A462D494978FF2900D190
:1005600010BD002A13D02A4B19780BE0284B9B1C96
:100570005B5C834200D1F3E74B1CDBB219461E2BB8
:1005800000D10021224B5B788B42EFD100BF204984
:100590004B784978491C1E4C6170A11CC854891EB7
:1005A00049781E2902D100212346597018494978FB
:1005B000174B1B78994205D115494978144B19708E
:1005C000FF21597000BFCBE711484078FF2805D1C3
:1005D0000F4800780E4A5070002070470C48007891
:1005E0000B4A5278904201D10020F6E70848027881
:1005F0000078401C064B1870981C815C801E0078A7
:100600001E2802D100201A4610700846E5E70000B7
:100610002202001069494A78891C895C002907D1A7
:1006200066494A784978491C644B5970991C88542A
:1006300062494978C72917DD60490978002908D03F
:1006400000215E4A517000225C494B78891CCA54D3
:100650001AE05A494978491E584A517000225749B0
:100660004B78891CCA540FE054494978534A127890
:10067000914209D151494978491E504A517000228E
:100680004E494B78891CCA54704710B54B490A78BB
:10069000891C885C0022891E0B780978491C474C0C
:1006A0002170A11CCA54891E0978C7290CDD214676
:1006B0004978C72903D00021224611700FE03F4935
:1006C00049783E4A11700AE03C490978491E3B4A84
:1006D0005278914203D139494978384A117010BD96
:1006E00000B500BFFFF7D1FF0028FBD100BD3449A2
:1006F0004A78891C895C002933D131494A78497884
:10070000491C2F4B5970991C8854891E4978C72958
:1007100017DD19460978002908D000211A465170C2
:10072000002219464B78891CCA541AE0244949789A
:10073000491E234A5170002221494B78891CCA5412
:100740000FE01F4949781E4A1278914209D11C498D
:100750004978491E1A4A5170002219494B78891C60
:10076000CA54704710B516490A78891C885C002263
:10077000891E0B780978491C114C2170A11CCA54A0
:10078000891E0978C7290CDD21464978C72903D07D
:100790000021224611700FE009494978084A11707A
:1007A0000AE007490978491E054A5278914203D167
:1007B00003494978024A117010BD00000C00001076
:1007C0000801001010B5044631480078002804D014
:1007D00001280DD0962821D115E001202D4908705F
:1007E00001212C4800F01EF9FF202949087016E06D
:1007F0009620284908700121264800F013F9FF20AF
:10080000234908700BE0012022490870012121488A
:1008100000F008F9FF201E49087000E000BF00BF8B
:1008200010BD10B51A480078002804D0012810D057
:1008300096282AD11BE01748027817A11B48FFF71A
:100840003FFD1B49087008460178184800F0EAF897
:100850001BE01048027810A11448FFF731FD14493D
:10086000087008460178114800F0DCF80DE00948EE
:10087000027809A10D48FFF723FD0D4908700846CD
:1008800001780A4800F0CEF800BF00BF10BD00009C
:100890000800001006000010746865206576656E1B
:1008A000742069732025640A0000000042020010D1
:1008B0000700001028480068012109040843264960
:1008C00008602648C06BC008C0002449C8630846B9
:1008D000C06B012108432149C863204840300068AB
:1008E000C008C0001D494031086008460068012169
:1008F00008431A494031086017480068012109047B
:1009000088431549086016480068022108431449C5
:1009100008601448C06B022108431249C86310489C
:100920000068042108430E4908600E48C06B04218A
:1009300008430C49C86370477047002008E0002155
:1009400001E04A1C91B2084A9142FADB421C90B283
:100950006428F4DB7047000080800440404004407D
:1009600000800150C03F0150204E000070B5044689
:1009700000BF414800680121090408433E4908605E
:100980003E48406AC008C0003C4948620846406A88
:1009900001210843394948620846806AC008C000FE
:1009A00088620846806A01210843344988623248D7
:1009B00000680121090488432F49086001208861EB
:1009C000084600680121090308432B490860832079
:1009D0002B49C8602B4909680809214600F0E2F854
:1009E0000546280A26494860E8B208600320C86026
:1009F000072088600846466970BD00BF20484069EE
:100A0000C007C00F0028F9D01D480068C0B2704769
:100A10001B49086000BF1A4949692022114020295A
:100A2000F9D170470BE000BF154A526920231A40E4
:100A3000002AF9D00278124B1A60401C491E002986
:100A4000F1D1704770B50E4885682807450F022D13
:100A500005D10B480068C4B22046FFF748FE70BDC0
:100A600010B5FFF77FFE084908700021064800789E
:100A7000FFF770FD10BD00008080044080400440FE
:100A8000008000400000001008000010F8B50E467D
:100A90000446002020622046E1688847002829D0CB
:100AA000252802D06268A16820E0E168204600277E
:100AB000884705001ED028464138192802D801274A
:100AC000FF0220353246204627602946FFF736FBD5
:100AD000002808D0012804D0F61DF608F6000836D4
:100AE000D9E7361DD7E762682846A1689047206A93
:100AF000401CCFE7206AF8BDF7B5002575291068BE
:100B0000009914A611D0C046C046002802DA40421F
:100B100011A608E0009909688A0701D50FA602E02E
:100B2000490704D50EA6012501E0C046C046009F36
:100B30000024243704E000F053F930313955641CA7
:100B40000028F8D12B4632462146009800F0D7F80D
:100B5000FEBD0000000000002D0000002B00000082
:100B60002000000001E004C0091F0429FBD28B070C
:100B700001D50280801CC90700D00270704700298F
:100B80000BD0C30702D00270401C491E022904D3B7
:100B9000830702D50280801C891EE3E70022EEE76E
:100BA0000022DFE7002203098B422CD3030A8B4289
:100BB00011D300239C464EE003460B433CD4002255
:100BC00043088B4231D303098B421CD3030A8B4267
:100BD00001D394463FE0C3098B4201D3CB01C01A35
:100BE000524183098B4201D38B01C01A5241430900
:100BF0008B4201D34B01C01A524103098B4201D3EE
:100C00000B01C01A5241C3088B4201D3CB00C01A5A
:100C1000524183088B4201D38B00C01A52414308D2
:100C20008B4201D34B00C01A5241411A00D20146F7
:100C30005241104670475DE0CA0F00D04942031090
:100C400000D34042534000229C4603098B422DD3DF
:100C5000030A8B4212D3FC22890112BA030A8B4287
:100C60000CD3890192118B4208D3890192118B42D6
:100C700004D389013AD0921100E08909C3098B425B
:100C800001D3CB01C01A524183098B4201D38B019E
:100C9000C01A524143098B4201D34B01C01A524141
:100CA00003098B4201D30B01C01A5241C3088B4286
:100CB00001D3CB00C01A524183088B4201D38B0071
:100CC000C01A5241D9D243088B4201D34B00C01AFB
:100CD0005241411A00D20146634652415B10104610
:100CE00001D34042002B00D54942704763465B1058
:100CF00000D3404201B50020C046C04602BDFFB54A
:100D000004460D4681B0243000902168880604D541
:100D10001022E0699143216000E00120A84201DD3A
:100D2000471B00E000270498A1697A191018081AD7
:100D3000A0612078C00602D42046C046C0460026E6
:100D400008E003986268A168805D9047206A401CB3
:100D5000761C206204988642F3DB2078C0060AD510
:100D60002046C046C04606E06268A1683020904731
:100D7000206A401C206238467F1E0028F4DC07E011
:100D800000986268A168405D9047206A401C20621C
:100D900028466D1E0028F3DC2046C046C046207859
:100DA000000602D5022005B0F0BD0120FBE70000DF
:100DB00001694A1C02610878704700B58FB0029142
:100DC000002105910549019379440391114604904E
:100DD0006846FFF75BFE0FB000BD0000E5FFFFFFB8
:100DE00001468008081A02091018020A1018020C9D
:100DF0001018C008820012185200891A01E0401C25
:100E00000A390A29FBD27047754600F023F8AE462E
:100E1000050069465346C008C000854618B020B595
:100E2000FFF7B4F960BC00274908B6460026C0C5E4
:100E3000C0C5C0C5C0C5C0C5C0C5C0C5C0C5403D92
:100E400049008D4670470446C046C0462046FFF71D
:100E50008CF90000004870476C020010014918200E
:100E6000ABBEFEE726000200704730B47446641E35
:100E70002578641CAB4204D3635D5B00E31830BC8F
:100E800018471D46F8E70000A80E000000000010FB
:100E90000C00000004010000B40E00000C00001063
:100EA000C40400002001000000879303000000003C
:040EB000000000003E
:04000005000000C136
:00000001FF
